{
  "contractName": "crowdfunding",
  "abi": [
    {
      "inputs": [],
      "stateMutability": "nonpayable",
      "type": "constructor"
    },
    {
      "inputs": [
        {
          "internalType": "string",
          "name": "username",
          "type": "string"
        },
        {
          "internalType": "string",
          "name": "email",
          "type": "string"
        },
        {
          "internalType": "string",
          "name": "password",
          "type": "string"
        }
      ],
      "name": "signup",
      "outputs": [],
      "stateMutability": "nonpayable",
      "type": "function"
    },
    {
      "inputs": [],
      "name": "viewusers",
      "outputs": [
        {
          "internalType": "string[]",
          "name": "",
          "type": "string[]"
        },
        {
          "internalType": "string[]",
          "name": "",
          "type": "string[]"
        },
        {
          "internalType": "string[]",
          "name": "",
          "type": "string[]"
        }
      ],
      "stateMutability": "view",
      "type": "function",
      "constant": true
    },
    {
      "inputs": [
        {
          "internalType": "string",
          "name": "orgname",
          "type": "string"
        },
        {
          "internalType": "string",
          "name": "orgyear",
          "type": "string"
        },
        {
          "internalType": "string",
          "name": "orgcontact",
          "type": "string"
        },
        {
          "internalType": "string",
          "name": "orgadd",
          "type": "string"
        },
        {
          "internalType": "string",
          "name": "orgpass",
          "type": "string"
        }
      ],
      "name": "addOrganisation",
      "outputs": [],
      "stateMutability": "nonpayable",
      "type": "function"
    },
    {
      "inputs": [],
      "name": "viewOrganisations",
      "outputs": [
        {
          "internalType": "string[]",
          "name": "",
          "type": "string[]"
        },
        {
          "internalType": "string[]",
          "name": "",
          "type": "string[]"
        },
        {
          "internalType": "string[]",
          "name": "",
          "type": "string[]"
        },
        {
          "internalType": "string[]",
          "name": "",
          "type": "string[]"
        },
        {
          "internalType": "string[]",
          "name": "",
          "type": "string[]"
        },
        {
          "internalType": "uint256[]",
          "name": "",
          "type": "uint256[]"
        },
        {
          "internalType": "uint256[]",
          "name": "",
          "type": "uint256[]"
        }
      ],
      "stateMutability": "view",
      "type": "function",
      "constant": true
    },
    {
      "inputs": [],
      "name": "viewAdmin",
      "outputs": [
        {
          "internalType": "address",
          "name": "",
          "type": "address"
        },
        {
          "internalType": "string",
          "name": "",
          "type": "string"
        }
      ],
      "stateMutability": "view",
      "type": "function",
      "constant": true
    },
    {
      "inputs": [
        {
          "internalType": "uint256",
          "name": "orgid1",
          "type": "uint256"
        },
        {
          "internalType": "uint256",
          "name": "status",
          "type": "uint256"
        }
      ],
      "name": "updateOrg",
      "outputs": [],
      "stateMutability": "nonpayable",
      "type": "function"
    },
    {
      "inputs": [
        {
          "internalType": "string",
          "name": "purpose",
          "type": "string"
        },
        {
          "internalType": "uint256",
          "name": "amount",
          "type": "uint256"
        },
        {
          "internalType": "string",
          "name": "username",
          "type": "string"
        }
      ],
      "name": "addRequest",
      "outputs": [],
      "stateMutability": "nonpayable",
      "type": "function"
    },
    {
      "inputs": [],
      "name": "viewRequests",
      "outputs": [
        {
          "internalType": "string[]",
          "name": "",
          "type": "string[]"
        },
        {
          "internalType": "uint256[]",
          "name": "",
          "type": "uint256[]"
        },
        {
          "internalType": "string[]",
          "name": "",
          "type": "string[]"
        },
        {
          "internalType": "uint256[]",
          "name": "",
          "type": "uint256[]"
        },
        {
          "internalType": "uint256[]",
          "name": "",
          "type": "uint256[]"
        },
        {
          "internalType": "uint256[]",
          "name": "",
          "type": "uint256[]"
        }
      ],
      "stateMutability": "view",
      "type": "function",
      "constant": true
    },
    {
      "inputs": [
        {
          "internalType": "uint256",
          "name": "amount",
          "type": "uint256"
        },
        {
          "internalType": "uint256",
          "name": "reqid",
          "type": "uint256"
        },
        {
          "internalType": "string",
          "name": "username",
          "type": "string"
        }
      ],
      "name": "addDonation",
      "outputs": [],
      "stateMutability": "nonpayable",
      "type": "function"
    },
    {
      "inputs": [],
      "name": "viewDonations",
      "outputs": [
        {
          "internalType": "uint256[]",
          "name": "",
          "type": "uint256[]"
        },
        {
          "internalType": "uint256[]",
          "name": "",
          "type": "uint256[]"
        },
        {
          "internalType": "string[]",
          "name": "",
          "type": "string[]"
        },
        {
          "internalType": "uint256[]",
          "name": "",
          "type": "uint256[]"
        }
      ],
      "stateMutability": "view",
      "type": "function",
      "constant": true
    },
    {
      "inputs": [
        {
          "internalType": "uint256",
          "name": "rid1",
          "type": "uint256"
        },
        {
          "internalType": "uint256",
          "name": "status",
          "type": "uint256"
        }
      ],
      "name": "updateRequest",
      "outputs": [],
      "stateMutability": "nonpayable",
      "type": "function"
    },
    {
      "inputs": [
        {
          "internalType": "string",
          "name": "username",
          "type": "string"
        },
        {
          "internalType": "string",
          "name": "purpose",
          "type": "string"
        },
        {
          "internalType": "uint256",
          "name": "amount",
          "type": "uint256"
        },
        {
          "internalType": "string",
          "name": "invoice",
          "type": "string"
        },
        {
          "internalType": "uint256",
          "name": "reqid",
          "type": "uint256"
        }
      ],
      "name": "addUtilisation",
      "outputs": [],
      "stateMutability": "nonpayable",
      "type": "function"
    },
    {
      "inputs": [],
      "name": "viewUtilisations",
      "outputs": [
        {
          "internalType": "string[]",
          "name": "",
          "type": "string[]"
        },
        {
          "internalType": "uint256[]",
          "name": "",
          "type": "uint256[]"
        },
        {
          "internalType": "string[]",
          "name": "",
          "type": "string[]"
        },
        {
          "internalType": "string[]",
          "name": "",
          "type": "string[]"
        },
        {
          "internalType": "uint256[]",
          "name": "",
          "type": "uint256[]"
        }
      ],
      "stateMutability": "view",
      "type": "function",
      "constant": true
    }
  ],
  "bytecode": "0x60806040526040518060400160405280600481526020017f3132333400000000000000000000000000000000000000000000000000000000815250602190816200004a919062000332565b503480156200005857600080fd5b506000601d819055506000601e819055506000601f8190555033602060006101000a81548173ffffffffffffffffffffffffffffffffffffffff021916908373ffffffffffffffffffffffffffffffffffffffff16021790555062000419565b600081519050919050565b7f4e487b7100000000000000000000000000000000000000000000000000000000600052604160045260246000fd5b7f4e487b7100000000000000000000000000000000000000000000000000000000600052602260045260246000fd5b600060028204905060018216806200013a57607f821691505b60208210810362000150576200014f620000f2565b5b50919050565b60008190508160005260206000209050919050565b60006020601f8301049050919050565b600082821b905092915050565b600060088302620001ba7fffffffffffffffffffffffffffffffffffffffffffffffffffffffffffffffff826200017b565b620001c686836200017b565b95508019841693508086168417925050509392505050565b6000819050919050565b6000819050919050565b6000620002136200020d6200020784620001de565b620001e8565b620001de565b9050919050565b6000819050919050565b6200022f83620001f2565b620002476200023e826200021a565b84845462000188565b825550505050565b600090565b6200025e6200024f565b6200026b81848462000224565b505050565b5b8181101562000293576200028760008262000254565b60018101905062000271565b5050565b601f821115620002e257620002ac8162000156565b620002b7846200016b565b81016020851015620002c7578190505b620002df620002d6856200016b565b83018262000270565b50505b505050565b600082821c905092915050565b60006200030760001984600802620002e7565b1980831691505092915050565b6000620003228383620002f4565b9150826002028217905092915050565b6200033d82620000b8565b67ffffffffffffffff811115620003595762000358620000c3565b5b62000365825462000121565b6200037282828562000297565b600060209050601f831160018114620003aa576000841562000395578287015190505b620003a1858262000314565b86555062000411565b601f198416620003ba8662000156565b60005b82811015620003e457848901518255600182019150602085019450602081019050620003bd565b8683101562000404578489015162000400601f891682620002f4565b8355505b6001600288020188555050505b505050505050565b612a0a80620004296000396000f3fe608060405234801561001057600080fd5b50600436106100cf5760003560e01c8063a46dec8b1161008c578063e334bf1911610066578063e334bf19146101ec578063e81c411d14610208578063e9f4f99a14610229578063f5d2b4a114610245576100cf565b8063a46dec8b1461018c578063ac0861c3146101ac578063d74e93b0146101c8576100cf565b8063183de5fc146100d4578063521e686d146100f05780635942f896146101135780635cdb46421461012f5780639910ed9a1461014b5780639bbbe8b01461016a575b600080fd5b6100ee60048036038101906100e99190611d0a565b610261565b005b6100f86103c6565b60405161010a96959493929190611fd8565b60405180910390f35b61012d60048036038101906101289190612063565b6106dd565b005b610149600480360381019061014491906120d2565b610899565b005b61015361090a565b60405161016192919061219d565b60405180910390f35b6101726109c7565b6040516101839594939291906121cd565b60405180910390f35b610194610d07565b6040516101a393929190612243565b60405180910390f35b6101c660048036038101906101c1919061228f565b610f96565b005b6101d0611114565b6040516101e39796959493929190612336565b60405180910390f35b610206600480360381019061020191906123d6565b611607565b005b610210611738565b6040516102209493929190612461565b60405180910390f35b610243600480360381019061023e91906120d2565b61191d565b005b61025f600480360381019061025a91906124c2565b61198e565b005b601c826040516102719190612605565b908152602001604051809103902060009054906101000a900460ff161561029757600080fd5b6014859080600181540180825580915050600190039060005260206000200160009091909190915090816102cb9190612828565b506015849080600181540180825580915050600190039060005260206000200160009091909190915090816103009190612828565b50601683908060018154018082558091505060019003906000526020600020016000909190919091505560178290806001815401808255809150506001900390600052602060002001600090919091909150908161035e9190612828565b5060188190806001815401808255809150506001900390600052602060002001600090919091909150556001601c8360405161039a9190612605565b908152602001604051809103902060006101000a81548160ff0219169083151502179055505050505050565b606080606080606080600a600b600c600d600e600f85805480602002602001604051908101604052809291908181526020016000905b828210156104a857838290600052602060002001805461041b9061264b565b80601f01602080910402602001604051908101604052809291908181526020018280546104479061264b565b80156104945780601f1061046957610100808354040283529160200191610494565b820191906000526020600020905b81548152906001019060200180831161047757829003601f168201915b5050505050815260200190600101906103fc565b505050509550848054806020026020016040519081016040528092919081815260200182805480156104f957602002820191906000526020600020905b8154815260200190600101908083116104e5575b5050505050945083805480602002602001604051908101604052809291908181526020016000905b828210156105cd5783829060005260206000200180546105409061264b565b80601f016020809104026020016040519081016040528092919081815260200182805461056c9061264b565b80156105b95780601f1061058e576101008083540402835291602001916105b9565b820191906000526020600020905b81548152906001019060200180831161059c57829003601f168201915b505050505081526020019060010190610521565b5050505093508280548060200260200160405190810160405280929190818152602001828054801561061e57602002820191906000526020600020905b81548152602001906001019080831161060a575b505050505092508180548060200260200160405190810160405280929190818152602001828054801561067057602002820191906000526020600020905b81548152602001906001019080831161065c575b50505050509150808054806020026020016040519081016040528092919081815260200182805480156106c257602002820191906000526020600020905b8154815260200190600101908083116106ae575b50505050509050955095509550955095509550909192939495565b60006001601f60008282546106f29190612929565b9250508190555060108390806001815401808255809150506001900390600052602060002001600090919091909150556011601f5490806001815401808255809150506001900390600052602060002001600090919091909150556012829080600181540180825580915050600190039060005260206000200160009091909190915090816107819190612828565b506013849080600181540180825580915050600190039060005260206000200160009091909190915055600090505b600d805490508110156108935782600d82815481106107d2576107d161295d565b5b9060005260206000200154036108805783600f82815481106107f7576107f661295d565b5b9060005260206000200160008282546108109190612929565b92505081905550600b818154811061082b5761082a61295d565b5b9060005260206000200154600f828154811061084a5761084961295d565b5b90600052602060002001540361087f576001600e82815481106108705761086f61295d565b5b90600052602060002001819055505b5b808061088b9061298c565b9150506107b0565b50505050565b60005b600d805490508110156109055782600d82815481106108be576108bd61295d565b5b9060005260206000200154036108f25781600e82815481106108e3576108e261295d565b5b90600052602060002001819055505b80806108fd9061298c565b91505061089c565b505050565b60006060602060009054906101000a900473ffffffffffffffffffffffffffffffffffffffff16602180805461093f9061264b565b80601f016020809104026020016040519081016040528092919081815260200182805461096b9061264b565b80156109b85780601f1061098d576101008083540402835291602001916109b8565b820191906000526020600020905b81548152906001019060200180831161099b57829003601f168201915b50505050509050915091509091565b60608060608060606015601660176014601884805480602002602001604051908101604052809291908181526020016000905b82821015610aa6578382906000526020600020018054610a199061264b565b80601f0160208091040260200160405190810160405280929190818152602001828054610a459061264b565b8015610a925780601f10610a6757610100808354040283529160200191610a92565b820191906000526020600020905b815481529060010190602001808311610a7557829003601f168201915b5050505050815260200190600101906109fa565b50505050945083805480602002602001604051908101604052809291908181526020018280548015610af757602002820191906000526020600020905b815481526020019060010190808311610ae3575b5050505050935082805480602002602001604051908101604052809291908181526020016000905b82821015610bcb578382906000526020600020018054610b3e9061264b565b80601f0160208091040260200160405190810160405280929190818152602001828054610b6a9061264b565b8015610bb75780601f10610b8c57610100808354040283529160200191610bb7565b820191906000526020600020905b815481529060010190602001808311610b9a57829003601f168201915b505050505081526020019060010190610b1f565b50505050925081805480602002602001604051908101604052809291908181526020016000905b82821015610c9e578382906000526020600020018054610c119061264b565b80601f0160208091040260200160405190810160405280929190818152602001828054610c3d9061264b565b8015610c8a5780601f10610c5f57610100808354040283529160200191610c8a565b820191906000526020600020905b815481529060010190602001808311610c6d57829003601f168201915b505050505081526020019060010190610bf2565b50505050915080805480602002602001604051908101604052809291908181526020018280548015610cef57602002820191906000526020600020905b815481526020019060010190808311610cdb575b50505050509050945094509450945094509091929394565b606080606060006001600282805480602002602001604051908101604052809291908181526020016000905b82821015610ddf578382906000526020600020018054610d529061264b565b80601f0160208091040260200160405190810160405280929190818152602001828054610d7e9061264b565b8015610dcb5780601f10610da057610100808354040283529160200191610dcb565b820191906000526020600020905b815481529060010190602001808311610dae57829003601f168201915b505050505081526020019060010190610d33565b50505050925081805480602002602001604051908101604052809291908181526020016000905b82821015610eb2578382906000526020600020018054610e259061264b565b80601f0160208091040260200160405190810160405280929190818152602001828054610e519061264b565b8015610e9e5780601f10610e7357610100808354040283529160200191610e9e565b820191906000526020600020905b815481529060010190602001808311610e8157829003601f168201915b505050505081526020019060010190610e06565b50505050915080805480602002602001604051908101604052809291908181526020016000905b82821015610f85578382906000526020600020018054610ef89061264b565b80601f0160208091040260200160405190810160405280929190818152602001828054610f249061264b565b8015610f715780601f10610f4657610100808354040283529160200191610f71565b820191906000526020600020905b815481529060010190602001808311610f5457829003601f168201915b505050505081526020019060010190610ed9565b505050509050925092509250909192565b601983604051610fa69190612605565b908152602001604051809103902060009054906101000a900460ff1615610fcc57600080fd5b601a82604051610fdc9190612605565b908152602001604051809103902060009054906101000a900460ff161561100257600080fd5b6000839080600181540180825580915050600190039060005260206000200160009091909190915090816110369190612828565b5060018290806001815401808255809150506001900390600052602060002001600090919091909150908161106b9190612828565b506002819080600181540180825580915050600190039060005260206000200160009091909190915090816110a09190612828565b5060016019846040516110b39190612605565b908152602001604051809103902060006101000a81548160ff0219169083151502179055506001601a836040516110ea9190612605565b908152602001604051809103902060006101000a81548160ff021916908315150217905550505050565b6060806060806060806060600360046005600660076009600886805480602002602001604051908101604052809291908181526020016000905b828210156111fa57838290600052602060002001805461116d9061264b565b80601f01602080910402602001604051908101604052809291908181526020018280546111999061264b565b80156111e65780601f106111bb576101008083540402835291602001916111e6565b820191906000526020600020905b8154815290600101906020018083116111c957829003601f168201915b50505050508152602001906001019061114e565b50505050965085805480602002602001604051908101604052809291908181526020016000905b828210156112cd5783829060005260206000200180546112409061264b565b80601f016020809104026020016040519081016040528092919081815260200182805461126c9061264b565b80156112b95780601f1061128e576101008083540402835291602001916112b9565b820191906000526020600020905b81548152906001019060200180831161129c57829003601f168201915b505050505081526020019060010190611221565b50505050955084805480602002602001604051908101604052809291908181526020016000905b828210156113a05783829060005260206000200180546113139061264b565b80601f016020809104026020016040519081016040528092919081815260200182805461133f9061264b565b801561138c5780601f106113615761010080835404028352916020019161138c565b820191906000526020600020905b81548152906001019060200180831161136f57829003601f168201915b5050505050815260200190600101906112f4565b50505050945083805480602002602001604051908101604052809291908181526020016000905b828210156114735783829060005260206000200180546113e69061264b565b80601f01602080910402602001604051908101604052809291908181526020018280546114129061264b565b801561145f5780601f106114345761010080835404028352916020019161145f565b820191906000526020600020905b81548152906001019060200180831161144257829003601f168201915b5050505050815260200190600101906113c7565b50505050935082805480602002602001604051908101604052809291908181526020016000905b828210156115465783829060005260206000200180546114b99061264b565b80601f01602080910402602001604051908101604052809291908181526020018280546114e59061264b565b80156115325780601f1061150757610100808354040283529160200191611532565b820191906000526020600020905b81548152906001019060200180831161151557829003601f168201915b50505050508152602001906001019061149a565b5050505092508180548060200260200160405190810160405280929190818152602001828054801561159757602002820191906000526020600020905b815481526020019060010190808311611583575b50505050509150808054806020026020016040519081016040528092919081815260200182805480156115e957602002820191906000526020600020905b8154815260200190600101908083116115d5575b50505050509050965096509650965096509650965090919293949596565b6001601e600082825461161a9190612929565b92505081905550600a839080600181540180825580915050600190039060005260206000200160009091909190915090816116559190612828565b50600b829080600181540180825580915050600190039060005260206000200160009091909190915055600c819080600181540180825580915050600190039060005260206000200160009091909190915090816116b39190612828565b50600d601e549080600181540180825580915050600190039060005260206000200160009091909190915055600e60009080600181540180825580915050600190039060005260206000200160009091909190915055600f60009080600181540180825580915050600190039060005260206000200160009091909190915055505050565b60608060608060106011601260138380548060200260200160405190810160405280929190818152602001828054801561179157602002820191906000526020600020905b81548152602001906001019080831161177d575b50505050509350828054806020026020016040519081016040528092919081815260200182805480156117e357602002820191906000526020600020905b8154815260200190600101908083116117cf575b5050505050925081805480602002602001604051908101604052809291908181526020016000905b828210156118b757838290600052602060002001805461182a9061264b565b80601f01602080910402602001604051908101604052809291908181526020018280546118569061264b565b80156118a35780601f10611878576101008083540402835291602001916118a3565b820191906000526020600020905b81548152906001019060200180831161188657829003601f168201915b50505050508152602001906001019061180b565b5050505091508080548060200260200160405190810160405280929190818152602001828054801561190857602002820191906000526020600020905b8154815260200190600101908083116118f4575b50505050509050935093509350935090919293565b60005b60088054905081101561198957600881815481106119415761194061295d565b5b906000526020600020015483036119765781600982815481106119675761196661295d565b5b90600052602060002001819055505b80806119819061298c565b915050611920565b505050565b601b8360405161199e9190612605565b908152602001604051809103902060009054906101000a900460ff16156119c457600080fd5b6001601d60008282546119d79190612929565b92505081905550600385908060018154018082558091505060019003906000526020600020016000909190919091509081611a129190612828565b50600484908060018154018082558091505060019003906000526020600020016000909190919091509081611a479190612828565b50600583908060018154018082558091505060019003906000526020600020016000909190919091509081611a7c9190612828565b50600682908060018154018082558091505060019003906000526020600020016000909190919091509081611ab19190612828565b50600781908060018154018082558091505060019003906000526020600020016000909190919091509081611ae69190612828565b506009600090806001815401808255809150506001900390600052602060002001600090919091909150556008601d5490806001815401808255809150506001900390600052602060002001600090919091909150556001601b84604051611b4e9190612605565b908152602001604051809103902060006101000a81548160ff0219169083151502179055505050505050565b6000604051905090565b600080fd5b600080fd5b600080fd5b600080fd5b6000601f19601f8301169050919050565b7f4e487b7100000000000000000000000000000000000000000000000000000000600052604160045260246000fd5b611be182611b98565b810181811067ffffffffffffffff82111715611c0057611bff611ba9565b5b80604052505050565b6000611c13611b7a565b9050611c1f8282611bd8565b919050565b600067ffffffffffffffff821115611c3f57611c3e611ba9565b5b611c4882611b98565b9050602081019050919050565b82818337600083830152505050565b6000611c77611c7284611c24565b611c09565b905082815260208101848484011115611c9357611c92611b93565b5b611c9e848285611c55565b509392505050565b600082601f830112611cbb57611cba611b8e565b5b8135611ccb848260208601611c64565b91505092915050565b6000819050919050565b611ce781611cd4565b8114611cf257600080fd5b50565b600081359050611d0481611cde565b92915050565b600080600080600060a08688031215611d2657611d25611b84565b5b600086013567ffffffffffffffff811115611d4457611d43611b89565b5b611d5088828901611ca6565b955050602086013567ffffffffffffffff811115611d7157611d70611b89565b5b611d7d88828901611ca6565b9450506040611d8e88828901611cf5565b935050606086013567ffffffffffffffff811115611daf57611dae611b89565b5b611dbb88828901611ca6565b9250506080611dcc88828901611cf5565b9150509295509295909350565b600081519050919050565b600082825260208201905092915050565b6000819050602082019050919050565b600081519050919050565b600082825260208201905092915050565b60005b83811015611e3f578082015181840152602081019050611e24565b60008484015250505050565b6000611e5682611e05565b611e608185611e10565b9350611e70818560208601611e21565b611e7981611b98565b840191505092915050565b6000611e908383611e4b565b905092915050565b6000602082019050919050565b6000611eb082611dd9565b611eba8185611de4565b935083602082028501611ecc85611df5565b8060005b85811015611f085784840389528151611ee98582611e84565b9450611ef483611e98565b925060208a01995050600181019050611ed0565b50829750879550505050505092915050565b600081519050919050565b600082825260208201905092915050565b6000819050602082019050919050565b611f4f81611cd4565b82525050565b6000611f618383611f46565b60208301905092915050565b6000602082019050919050565b6000611f8582611f1a565b611f8f8185611f25565b9350611f9a83611f36565b8060005b83811015611fcb578151611fb28882611f55565b9750611fbd83611f6d565b925050600181019050611f9e565b5085935050505092915050565b600060c0820190508181036000830152611ff28189611ea5565b905081810360208301526120068188611f7a565b9050818103604083015261201a8187611ea5565b9050818103606083015261202e8186611f7a565b905081810360808301526120428185611f7a565b905081810360a08301526120568184611f7a565b9050979650505050505050565b60008060006060848603121561207c5761207b611b84565b5b600061208a86828701611cf5565b935050602061209b86828701611cf5565b925050604084013567ffffffffffffffff8111156120bc576120bb611b89565b5b6120c886828701611ca6565b9150509250925092565b600080604083850312156120e9576120e8611b84565b5b60006120f785828601611cf5565b925050602061210885828601611cf5565b9150509250929050565b600073ffffffffffffffffffffffffffffffffffffffff82169050919050565b600061213d82612112565b9050919050565b61214d81612132565b82525050565b600082825260208201905092915050565b600061216f82611e05565b6121798185612153565b9350612189818560208601611e21565b61219281611b98565b840191505092915050565b60006040820190506121b26000830185612144565b81810360208301526121c48184612164565b90509392505050565b600060a08201905081810360008301526121e78188611ea5565b905081810360208301526121fb8187611f7a565b9050818103604083015261220f8186611ea5565b905081810360608301526122238185611ea5565b905081810360808301526122378184611f7a565b90509695505050505050565b6000606082019050818103600083015261225d8186611ea5565b905081810360208301526122718185611ea5565b905081810360408301526122858184611ea5565b9050949350505050565b6000806000606084860312156122a8576122a7611b84565b5b600084013567ffffffffffffffff8111156122c6576122c5611b89565b5b6122d286828701611ca6565b935050602084013567ffffffffffffffff8111156122f3576122f2611b89565b5b6122ff86828701611ca6565b925050604084013567ffffffffffffffff8111156123205761231f611b89565b5b61232c86828701611ca6565b9150509250925092565b600060e0820190508181036000830152612350818a611ea5565b905081810360208301526123648189611ea5565b905081810360408301526123788188611ea5565b9050818103606083015261238c8187611ea5565b905081810360808301526123a08186611ea5565b905081810360a08301526123b48185611f7a565b905081810360c08301526123c88184611f7a565b905098975050505050505050565b6000806000606084860312156123ef576123ee611b84565b5b600084013567ffffffffffffffff81111561240d5761240c611b89565b5b61241986828701611ca6565b935050602061242a86828701611cf5565b925050604084013567ffffffffffffffff81111561244b5761244a611b89565b5b61245786828701611ca6565b9150509250925092565b6000608082019050818103600083015261247b8187611f7a565b9050818103602083015261248f8186611f7a565b905081810360408301526124a38185611ea5565b905081810360608301526124b78184611f7a565b905095945050505050565b600080600080600060a086880312156124de576124dd611b84565b5b600086013567ffffffffffffffff8111156124fc576124fb611b89565b5b61250888828901611ca6565b955050602086013567ffffffffffffffff81111561252957612528611b89565b5b61253588828901611ca6565b945050604086013567ffffffffffffffff81111561255657612555611b89565b5b61256288828901611ca6565b935050606086013567ffffffffffffffff81111561258357612582611b89565b5b61258f88828901611ca6565b925050608086013567ffffffffffffffff8111156125b0576125af611b89565b5b6125bc88828901611ca6565b9150509295509295909350565b600081905092915050565b60006125df82611e05565b6125e981856125c9565b93506125f9818560208601611e21565b80840191505092915050565b600061261182846125d4565b915081905092915050565b7f4e487b7100000000000000000000000000000000000000000000000000000000600052602260045260246000fd5b6000600282049050600182168061266357607f821691505b6020821081036126765761267561261c565b5b50919050565b60008190508160005260206000209050919050565b60006020601f8301049050919050565b600082821b905092915050565b6000600883026126de7fffffffffffffffffffffffffffffffffffffffffffffffffffffffffffffffff826126a1565b6126e886836126a1565b95508019841693508086168417925050509392505050565b6000819050919050565b600061272561272061271b84611cd4565b612700565b611cd4565b9050919050565b6000819050919050565b61273f8361270a565b61275361274b8261272c565b8484546126ae565b825550505050565b600090565b61276861275b565b612773818484612736565b505050565b5b818110156127975761278c600082612760565b600181019050612779565b5050565b601f8211156127dc576127ad8161267c565b6127b684612691565b810160208510156127c5578190505b6127d96127d185612691565b830182612778565b50505b505050565b600082821c905092915050565b60006127ff600019846008026127e1565b1980831691505092915050565b600061281883836127ee565b9150826002028217905092915050565b61283182611e05565b67ffffffffffffffff81111561284a57612849611ba9565b5b612854825461264b565b61285f82828561279b565b600060209050601f8311600181146128925760008415612880578287015190505b61288a858261280c565b8655506128f2565b601f1984166128a08661267c565b60005b828110156128c8578489015182556001820191506020850194506020810190506128a3565b868310156128e557848901516128e1601f8916826127ee565b8355505b6001600288020188555050505b505050505050565b7f4e487b7100000000000000000000000000000000000000000000000000000000600052601160045260246000fd5b600061293482611cd4565b915061293f83611cd4565b9250828201905080821115612957576129566128fa565b5b92915050565b7f4e487b7100000000000000000000000000000000000000000000000000000000600052603260045260246000fd5b600061299782611cd4565b91507fffffffffffffffffffffffffffffffffffffffffffffffffffffffffffffffff82036129c9576129c86128fa565b5b60018201905091905056fea2646970667358221220b549b4adf3330d20c9427106aed86075f69b3855e7eff5c82141a95e554b5f1664736f6c63430008130033",
  "immutableReferences": {},
  "source": "// SPDX-License-Identifier: MIT\r\npragma solidity >=0.4.22 <0.9.0;\r\n\r\ncontract crowdfunding {\r\n\r\n  string[] _usernames;\r\n  string[] _emails;\r\n  string[] _passwords;\r\n\r\n  string[] _orgnames;\r\n  string[] _orgyears;\r\n  string[] _orgcontacts;\r\n  string[] _orgaddress;\r\n  string[] _orgpasswords;\r\n  uint[] _orgids;\r\n  uint[] _orgstatus;\r\n\r\n  string[] _rpurpose;\r\n  uint[] _ramount;\r\n  string[] _rusernames;\r\n  uint[] _rids;\r\n  uint[] _rstatus;\r\n  uint[] _rdonations;\r\n\r\n  uint[] _rgids;\r\n  uint[] _gids;\r\n  string[] _gusernames;\r\n  uint[] _gdonations;\r\n\r\n  string[] _uusernames;\r\n  string[] _upurposes;\r\n  uint[] _uamounts;\r\n  string[] _ufiles;\r\n  uint[] _reqids;\r\n\r\n  mapping(string=>bool) _registeredusers;\r\n  mapping(string=>bool) _registeredemails;\r\n  mapping(string=>bool) _registeredorgs;\r\n  mapping(string=>bool) _registeredinvoices;\r\n\r\n  uint orgid;\r\n  uint rid;\r\n  uint gid;\r\n  address admin;\r\n  string adminp=\"1234\";\r\n\r\n  constructor() {\r\n    orgid=0;\r\n    rid=0;\r\n    gid=0;\r\n    admin=msg.sender;\r\n  }\r\n\r\n  function signup(string memory username,string memory email,string memory password) public {\r\n    require(!_registeredusers[username]);\r\n    require(!_registeredemails[email]);\r\n\r\n    _usernames.push(username);\r\n    _emails.push(email);\r\n    _passwords.push(password);\r\n    \r\n    _registeredusers[username]=true;\r\n    _registeredemails[email]=true;\r\n  }\r\n\r\n  function viewusers() public view returns(string[] memory,string[] memory,string[] memory){\r\n    return(_usernames,_emails,_passwords);\r\n  }\r\n\r\n  function addOrganisation(string memory orgname,string memory orgyear,string memory orgcontact,string memory orgadd,string memory orgpass) public {\r\n    require(!_registeredorgs[orgcontact]);\r\n\r\n    orgid+=1;\r\n    _orgnames.push(orgname);\r\n    _orgyears.push(orgyear);\r\n    _orgcontacts.push(orgcontact);\r\n    _orgaddress.push(orgadd);\r\n    _orgpasswords.push(orgpass);\r\n    _orgstatus.push(0);\r\n    _orgids.push(orgid);\r\n\r\n    _registeredorgs[orgcontact]=true;\r\n  }\r\n\r\n  function viewOrganisations() public view returns(string[] memory,string[] memory,string[] memory,string[] memory,string[] memory,uint[] memory,uint[] memory){\r\n    return(_orgnames,_orgyears,_orgcontacts,_orgaddress,_orgpasswords,_orgstatus,_orgids);\r\n  }\r\n\r\n  function viewAdmin() public view returns(address,string memory) {\r\n    return(admin,adminp);\r\n  }\r\n\r\n  function updateOrg(uint orgid1,uint status) public{\r\n    uint i;\r\n\r\n    for(i=0;i<_orgids.length;i++){\r\n      if(orgid1==_orgids[i]){\r\n        _orgstatus[i]=status;\r\n      }\r\n    }\r\n  }\r\n\r\n  function addRequest(string memory purpose,uint amount,string memory username) public {\r\n    rid+=1;\r\n    _rpurpose.push(purpose);\r\n    _ramount.push(amount);\r\n    _rusernames.push(username);\r\n    _rids.push(rid);\r\n    _rstatus.push(0);\r\n    _rdonations.push(0);\r\n  }\r\n\r\n  function viewRequests() public view returns(string[] memory,uint[] memory,string[] memory,uint[] memory,uint[] memory,uint[] memory){\r\n    return (_rpurpose,_ramount,_rusernames,_rids,_rstatus,_rdonations);\r\n  }\r\n\r\n  function addDonation(uint amount,uint reqid,string memory username) public {\r\n    uint i;\r\n\r\n    gid+=1;\r\n    _rgids.push(reqid);\r\n    _gids.push(gid);\r\n    _gusernames.push(username);\r\n    _gdonations.push(amount);\r\n\r\n    for(i=0;i<_rids.length;i++){\r\n      if(_rids[i]==reqid){\r\n        _rdonations[i]+=amount;\r\n        if(_rdonations[i]==_ramount[i]){\r\n          _rstatus[i]=1;\r\n        }\r\n      }\r\n    }\r\n  }\r\n\r\n  function viewDonations() public view returns(uint[] memory,uint[] memory,string[] memory,uint[] memory) {\r\n    return(_rgids,_gids,_gusernames,_gdonations);\r\n  } \r\n\r\n  function updateRequest(uint rid1,uint status) public{\r\n    uint i;\r\n\r\n    for(i=0;i<_rids.length;i++){\r\n      if(_rids[i]==rid1){\r\n        _rstatus[i]=status;\r\n      }\r\n    }\r\n  }\r\n\r\n  function addUtilisation(string memory username,string memory purpose,uint amount, string memory invoice,uint reqid) public {\r\n\r\n    require(!_registeredinvoices[invoice]);\r\n    _uusernames.push(username);\r\n    _upurposes.push(purpose);\r\n    _uamounts.push(amount);\r\n    _ufiles.push(invoice);\r\n    _reqids.push(reqid);\r\n\r\n    _registeredinvoices[invoice]=true;\r\n\r\n  }\r\n\r\n  function viewUtilisations() public view returns(string[] memory,uint[] memory, string[] memory,string[] memory,uint[] memory){\r\n    return(_upurposes,_uamounts,_ufiles,_uusernames,_reqids);\r\n  }\r\n\r\n}\r\n",
  "sourcePath": "C:\\Users\\Madhu\\Desktop\\crowd-funding-blockchain-kits\\contracts\\crowdfunding.sol",
  "compiler": {
    "name": "solc",
    "version": "0.8.19+commit.7dd6d404.Emscripten.clang"
  },
  "schemaVersion": "3.4.16",
  "updatedAt": "2024-03-06T21:04:09.333Z",
  "networkType": "ethereum",
  "devdoc": {
    "kind": "dev",
    "methods": {},
    "version": 1
  },
  "userdoc": {
    "kind": "user",
    "methods": {},
    "version": 1
  }
}