{
  "contractName": "crowdfunding",
  "abi": [
    {
      "inputs": [],
      "stateMutability": "nonpayable",
      "type": "constructor"
    },
    {
      "inputs": [
        {
          "internalType": "string",
          "name": "username",
          "type": "string"
        },
        {
          "internalType": "string",
          "name": "email",
          "type": "string"
        },
        {
          "internalType": "string",
          "name": "password",
          "type": "string"
        }
      ],
      "name": "signup",
      "outputs": [],
      "stateMutability": "nonpayable",
      "type": "function"
    },
    {
      "inputs": [],
      "name": "viewusers",
      "outputs": [
        {
          "internalType": "string[]",
          "name": "",
          "type": "string[]"
        },
        {
          "internalType": "string[]",
          "name": "",
          "type": "string[]"
        },
        {
          "internalType": "string[]",
          "name": "",
          "type": "string[]"
        }
      ],
      "stateMutability": "view",
      "type": "function",
      "constant": true
    },
    {
      "inputs": [
        {
          "internalType": "string",
          "name": "orgname",
          "type": "string"
        },
        {
          "internalType": "string",
          "name": "orgyear",
          "type": "string"
        },
        {
          "internalType": "string",
          "name": "orgcontact",
          "type": "string"
        },
        {
          "internalType": "string",
          "name": "orgadd",
          "type": "string"
        },
        {
          "internalType": "string",
          "name": "orgpass",
          "type": "string"
        }
      ],
      "name": "addOrganisation",
      "outputs": [],
      "stateMutability": "nonpayable",
      "type": "function"
    },
    {
      "inputs": [],
      "name": "viewOrganisations",
      "outputs": [
        {
          "internalType": "string[]",
          "name": "",
          "type": "string[]"
        },
        {
          "internalType": "string[]",
          "name": "",
          "type": "string[]"
        },
        {
          "internalType": "string[]",
          "name": "",
          "type": "string[]"
        },
        {
          "internalType": "string[]",
          "name": "",
          "type": "string[]"
        },
        {
          "internalType": "string[]",
          "name": "",
          "type": "string[]"
        },
        {
          "internalType": "uint256[]",
          "name": "",
          "type": "uint256[]"
        },
        {
          "internalType": "uint256[]",
          "name": "",
          "type": "uint256[]"
        }
      ],
      "stateMutability": "view",
      "type": "function",
      "constant": true
    },
    {
      "inputs": [],
      "name": "viewAdmin",
      "outputs": [
        {
          "internalType": "address",
          "name": "",
          "type": "address"
        },
        {
          "internalType": "string",
          "name": "",
          "type": "string"
        }
      ],
      "stateMutability": "view",
      "type": "function",
      "constant": true
    },
    {
      "inputs": [
        {
          "internalType": "uint256",
          "name": "orgid1",
          "type": "uint256"
        },
        {
          "internalType": "uint256",
          "name": "status",
          "type": "uint256"
        }
      ],
      "name": "updateOrg",
      "outputs": [],
      "stateMutability": "nonpayable",
      "type": "function"
    },
    {
      "inputs": [
        {
          "internalType": "string",
          "name": "purpose",
          "type": "string"
        },
        {
          "internalType": "uint256",
          "name": "amount",
          "type": "uint256"
        },
        {
          "internalType": "string",
          "name": "username",
          "type": "string"
        }
      ],
      "name": "addRequest",
      "outputs": [],
      "stateMutability": "nonpayable",
      "type": "function"
    },
    {
      "inputs": [],
      "name": "viewRequests",
      "outputs": [
        {
          "internalType": "string[]",
          "name": "",
          "type": "string[]"
        },
        {
          "internalType": "uint256[]",
          "name": "",
          "type": "uint256[]"
        },
        {
          "internalType": "string[]",
          "name": "",
          "type": "string[]"
        },
        {
          "internalType": "uint256[]",
          "name": "",
          "type": "uint256[]"
        },
        {
          "internalType": "uint256[]",
          "name": "",
          "type": "uint256[]"
        },
        {
          "internalType": "uint256[]",
          "name": "",
          "type": "uint256[]"
        }
      ],
      "stateMutability": "view",
      "type": "function",
      "constant": true
    },
    {
      "inputs": [
        {
          "internalType": "uint256",
          "name": "amount",
          "type": "uint256"
        },
        {
          "internalType": "uint256",
          "name": "reqid",
          "type": "uint256"
        },
        {
          "internalType": "string",
          "name": "username",
          "type": "string"
        }
      ],
      "name": "addDonation",
      "outputs": [],
      "stateMutability": "nonpayable",
      "type": "function"
    },
    {
      "inputs": [],
      "name": "viewDonations",
      "outputs": [
        {
          "internalType": "uint256[]",
          "name": "",
          "type": "uint256[]"
        },
        {
          "internalType": "uint256[]",
          "name": "",
          "type": "uint256[]"
        },
        {
          "internalType": "string[]",
          "name": "",
          "type": "string[]"
        },
        {
          "internalType": "uint256[]",
          "name": "",
          "type": "uint256[]"
        }
      ],
      "stateMutability": "view",
      "type": "function",
      "constant": true
    },
    {
      "inputs": [
        {
          "internalType": "uint256",
          "name": "rid1",
          "type": "uint256"
        },
        {
          "internalType": "uint256",
          "name": "status",
          "type": "uint256"
        }
      ],
      "name": "updateRequest",
      "outputs": [],
      "stateMutability": "nonpayable",
      "type": "function"
    },
    {
      "inputs": [
        {
          "internalType": "string",
          "name": "purpose",
          "type": "string"
        },
        {
          "internalType": "uint256",
          "name": "amount",
          "type": "uint256"
        },
        {
          "internalType": "string",
          "name": "invoice",
          "type": "string"
        }
      ],
      "name": "addUtilisation",
      "outputs": [],
      "stateMutability": "nonpayable",
      "type": "function"
    },
    {
      "inputs": [],
      "name": "viewUtilisations",
      "outputs": [
        {
          "internalType": "string[]",
          "name": "",
          "type": "string[]"
        },
        {
          "internalType": "uint256[]",
          "name": "",
          "type": "uint256[]"
        },
        {
          "internalType": "string[]",
          "name": "",
          "type": "string[]"
        }
      ],
      "stateMutability": "view",
      "type": "function",
      "constant": true
    }
  ],
  "bytecode": "0x60806040526040518060400160405280600481526020017f3132333400000000000000000000000000000000000000000000000000000000815250601f90816200004a919062000332565b503480156200005857600080fd5b506000601b819055506000601c819055506000601d8190555033601e60006101000a81548173ffffffffffffffffffffffffffffffffffffffff021916908373ffffffffffffffffffffffffffffffffffffffff16021790555062000419565b600081519050919050565b7f4e487b7100000000000000000000000000000000000000000000000000000000600052604160045260246000fd5b7f4e487b7100000000000000000000000000000000000000000000000000000000600052602260045260246000fd5b600060028204905060018216806200013a57607f821691505b60208210810362000150576200014f620000f2565b5b50919050565b60008190508160005260206000209050919050565b60006020601f8301049050919050565b600082821b905092915050565b600060088302620001ba7fffffffffffffffffffffffffffffffffffffffffffffffffffffffffffffffff826200017b565b620001c686836200017b565b95508019841693508086168417925050509392505050565b6000819050919050565b6000819050919050565b6000620002136200020d6200020784620001de565b620001e8565b620001de565b9050919050565b6000819050919050565b6200022f83620001f2565b620002476200023e826200021a565b84845462000188565b825550505050565b600090565b6200025e6200024f565b6200026b81848462000224565b505050565b5b8181101562000293576200028760008262000254565b60018101905062000271565b5050565b601f821115620002e257620002ac8162000156565b620002b7846200016b565b81016020851015620002c7578190505b620002df620002d6856200016b565b83018262000270565b50505b505050565b600082821c905092915050565b60006200030760001984600802620002e7565b1980831691505092915050565b6000620003228383620002f4565b9150826002028217905092915050565b6200033d82620000b8565b67ffffffffffffffff811115620003595762000358620000c3565b5b62000365825462000121565b6200037282828562000297565b600060209050601f831160018114620003aa576000841562000395578287015190505b620003a1858262000314565b86555062000411565b601f198416620003ba8662000156565b60005b82811015620003e457848901518255600182019150602085019450602081019050620003bd565b8683101562000404578489015162000400601f891682620002f4565b8355505b6001600288020188555050505b505050505050565b61277d80620004296000396000f3fe608060405234801561001057600080fd5b50600436106100cf5760003560e01c8063a46dec8b1161008c578063e334bf1911610066578063e334bf19146101ea578063e81c411d14610206578063e9f4f99a14610227578063f5d2b4a114610243576100cf565b8063a46dec8b1461018a578063ac0861c3146101aa578063d74e93b0146101c6576100cf565b806341105bb4146100d4578063521e686d146100f05780635942f896146101135780635cdb46421461012f5780639910ed9a1461014b5780639bbbe8b01461016a575b600080fd5b6100ee60048036038101906100e99190611b76565b61025f565b005b6100f8610364565b60405161010a96959493929190611e00565b60405180910390f35b61012d60048036038101906101289190611e8b565b61067b565b005b61014960048036038101906101449190611efa565b610837565b005b6101536108a8565b604051610161929190611fc5565b60405180910390f35b610172610965565b60405161018193929190611ff5565b60405180910390f35b610192610b73565b6040516101a193929190612041565b60405180910390f35b6101c460048036038101906101bf919061208d565b610e02565b005b6101ce610f80565b6040516101e19796959493929190612134565b60405180910390f35b61020460048036038101906101ff9190611b76565b611473565b005b61020e6115a4565b60405161021e94939291906121d4565b60405180910390f35b610241600480360381019061023c9190611efa565b611789565b005b61025d60048036038101906102589190612235565b6117fa565b005b601a8160405161026f9190612378565b908152602001604051809103902060009054906101000a900460ff161561029557600080fd5b6014839080600181540180825580915050600190039060005260206000200160009091909190915090816102c9919061259b565b506015829080600181540180825580915050600190039060005260206000200160009091909190915055601681908060018154018082558091505060019003906000526020600020016000909190919091509081610327919061259b565b506001601a8260405161033a9190612378565b908152602001604051809103902060006101000a81548160ff021916908315150217905550505050565b606080606080606080600a600b600c600d600e600f85805480602002602001604051908101604052809291908181526020016000905b828210156104465783829060005260206000200180546103b9906123be565b80601f01602080910402602001604051908101604052809291908181526020018280546103e5906123be565b80156104325780601f1061040757610100808354040283529160200191610432565b820191906000526020600020905b81548152906001019060200180831161041557829003601f168201915b50505050508152602001906001019061039a565b5050505095508480548060200260200160405190810160405280929190818152602001828054801561049757602002820191906000526020600020905b815481526020019060010190808311610483575b5050505050945083805480602002602001604051908101604052809291908181526020016000905b8282101561056b5783829060005260206000200180546104de906123be565b80601f016020809104026020016040519081016040528092919081815260200182805461050a906123be565b80156105575780601f1061052c57610100808354040283529160200191610557565b820191906000526020600020905b81548152906001019060200180831161053a57829003601f168201915b5050505050815260200190600101906104bf565b505050509350828054806020026020016040519081016040528092919081815260200182805480156105bc57602002820191906000526020600020905b8154815260200190600101908083116105a8575b505050505092508180548060200260200160405190810160405280929190818152602001828054801561060e57602002820191906000526020600020905b8154815260200190600101908083116105fa575b505050505091508080548060200260200160405190810160405280929190818152602001828054801561066057602002820191906000526020600020905b81548152602001906001019080831161064c575b50505050509050955095509550955095509550909192939495565b60006001601d6000828254610690919061269c565b9250508190555060108390806001815401808255809150506001900390600052602060002001600090919091909150556011601d54908060018154018082558091505060019003906000526020600020016000909190919091505560128290806001815401808255809150506001900390600052602060002001600090919091909150908161071f919061259b565b506013849080600181540180825580915050600190039060005260206000200160009091909190915055600090505b600d805490508110156108315782600d82815481106107705761076f6126d0565b5b90600052602060002001540361081e5783600f8281548110610795576107946126d0565b5b9060005260206000200160008282546107ae919061269c565b92505081905550600b81815481106107c9576107c86126d0565b5b9060005260206000200154600f82815481106107e8576107e76126d0565b5b90600052602060002001540361081d576001600e828154811061080e5761080d6126d0565b5b90600052602060002001819055505b5b8080610829906126ff565b91505061074e565b50505050565b60005b600d805490508110156108a35782600d828154811061085c5761085b6126d0565b5b9060005260206000200154036108905781600e8281548110610881576108806126d0565b5b90600052602060002001819055505b808061089b906126ff565b91505061083a565b505050565b60006060601e60009054906101000a900473ffffffffffffffffffffffffffffffffffffffff16601f8080546108dd906123be565b80601f0160208091040260200160405190810160405280929190818152602001828054610909906123be565b80156109565780601f1061092b57610100808354040283529160200191610956565b820191906000526020600020905b81548152906001019060200180831161093957829003601f168201915b50505050509050915091509091565b606080606060146015601682805480602002602001604051908101604052809291908181526020016000905b82821015610a3d5783829060005260206000200180546109b0906123be565b80601f01602080910402602001604051908101604052809291908181526020018280546109dc906123be565b8015610a295780601f106109fe57610100808354040283529160200191610a29565b820191906000526020600020905b815481529060010190602001808311610a0c57829003601f168201915b505050505081526020019060010190610991565b50505050925081805480602002602001604051908101604052809291908181526020018280548015610a8e57602002820191906000526020600020905b815481526020019060010190808311610a7a575b5050505050915080805480602002602001604051908101604052809291908181526020016000905b82821015610b62578382906000526020600020018054610ad5906123be565b80601f0160208091040260200160405190810160405280929190818152602001828054610b01906123be565b8015610b4e5780601f10610b2357610100808354040283529160200191610b4e565b820191906000526020600020905b815481529060010190602001808311610b3157829003601f168201915b505050505081526020019060010190610ab6565b505050509050925092509250909192565b606080606060006001600282805480602002602001604051908101604052809291908181526020016000905b82821015610c4b578382906000526020600020018054610bbe906123be565b80601f0160208091040260200160405190810160405280929190818152602001828054610bea906123be565b8015610c375780601f10610c0c57610100808354040283529160200191610c37565b820191906000526020600020905b815481529060010190602001808311610c1a57829003601f168201915b505050505081526020019060010190610b9f565b50505050925081805480602002602001604051908101604052809291908181526020016000905b82821015610d1e578382906000526020600020018054610c91906123be565b80601f0160208091040260200160405190810160405280929190818152602001828054610cbd906123be565b8015610d0a5780601f10610cdf57610100808354040283529160200191610d0a565b820191906000526020600020905b815481529060010190602001808311610ced57829003601f168201915b505050505081526020019060010190610c72565b50505050915080805480602002602001604051908101604052809291908181526020016000905b82821015610df1578382906000526020600020018054610d64906123be565b80601f0160208091040260200160405190810160405280929190818152602001828054610d90906123be565b8015610ddd5780601f10610db257610100808354040283529160200191610ddd565b820191906000526020600020905b815481529060010190602001808311610dc057829003601f168201915b505050505081526020019060010190610d45565b505050509050925092509250909192565b601783604051610e129190612378565b908152602001604051809103902060009054906101000a900460ff1615610e3857600080fd5b601882604051610e489190612378565b908152602001604051809103902060009054906101000a900460ff1615610e6e57600080fd5b600083908060018154018082558091505060019003906000526020600020016000909190919091509081610ea2919061259b565b50600182908060018154018082558091505060019003906000526020600020016000909190919091509081610ed7919061259b565b50600281908060018154018082558091505060019003906000526020600020016000909190919091509081610f0c919061259b565b506001601784604051610f1f9190612378565b908152602001604051809103902060006101000a81548160ff0219169083151502179055506001601883604051610f569190612378565b908152602001604051809103902060006101000a81548160ff021916908315150217905550505050565b6060806060806060806060600360046005600660076009600886805480602002602001604051908101604052809291908181526020016000905b82821015611066578382906000526020600020018054610fd9906123be565b80601f0160208091040260200160405190810160405280929190818152602001828054611005906123be565b80156110525780601f1061102757610100808354040283529160200191611052565b820191906000526020600020905b81548152906001019060200180831161103557829003601f168201915b505050505081526020019060010190610fba565b50505050965085805480602002602001604051908101604052809291908181526020016000905b828210156111395783829060005260206000200180546110ac906123be565b80601f01602080910402602001604051908101604052809291908181526020018280546110d8906123be565b80156111255780601f106110fa57610100808354040283529160200191611125565b820191906000526020600020905b81548152906001019060200180831161110857829003601f168201915b50505050508152602001906001019061108d565b50505050955084805480602002602001604051908101604052809291908181526020016000905b8282101561120c57838290600052602060002001805461117f906123be565b80601f01602080910402602001604051908101604052809291908181526020018280546111ab906123be565b80156111f85780601f106111cd576101008083540402835291602001916111f8565b820191906000526020600020905b8154815290600101906020018083116111db57829003601f168201915b505050505081526020019060010190611160565b50505050945083805480602002602001604051908101604052809291908181526020016000905b828210156112df578382906000526020600020018054611252906123be565b80601f016020809104026020016040519081016040528092919081815260200182805461127e906123be565b80156112cb5780601f106112a0576101008083540402835291602001916112cb565b820191906000526020600020905b8154815290600101906020018083116112ae57829003601f168201915b505050505081526020019060010190611233565b50505050935082805480602002602001604051908101604052809291908181526020016000905b828210156113b2578382906000526020600020018054611325906123be565b80601f0160208091040260200160405190810160405280929190818152602001828054611351906123be565b801561139e5780601f106113735761010080835404028352916020019161139e565b820191906000526020600020905b81548152906001019060200180831161138157829003601f168201915b505050505081526020019060010190611306565b5050505092508180548060200260200160405190810160405280929190818152602001828054801561140357602002820191906000526020600020905b8154815260200190600101908083116113ef575b505050505091508080548060200260200160405190810160405280929190818152602001828054801561145557602002820191906000526020600020905b815481526020019060010190808311611441575b50505050509050965096509650965096509650965090919293949596565b6001601c6000828254611486919061269c565b92505081905550600a839080600181540180825580915050600190039060005260206000200160009091909190915090816114c1919061259b565b50600b829080600181540180825580915050600190039060005260206000200160009091909190915055600c8190806001815401808255809150506001900390600052602060002001600090919091909150908161151f919061259b565b50600d601c549080600181540180825580915050600190039060005260206000200160009091909190915055600e60009080600181540180825580915050600190039060005260206000200160009091909190915055600f60009080600181540180825580915050600190039060005260206000200160009091909190915055505050565b6060806060806010601160126013838054806020026020016040519081016040528092919081815260200182805480156115fd57602002820191906000526020600020905b8154815260200190600101908083116115e9575b505050505093508280548060200260200160405190810160405280929190818152602001828054801561164f57602002820191906000526020600020905b81548152602001906001019080831161163b575b5050505050925081805480602002602001604051908101604052809291908181526020016000905b82821015611723578382906000526020600020018054611696906123be565b80601f01602080910402602001604051908101604052809291908181526020018280546116c2906123be565b801561170f5780601f106116e45761010080835404028352916020019161170f565b820191906000526020600020905b8154815290600101906020018083116116f257829003601f168201915b505050505081526020019060010190611677565b5050505091508080548060200260200160405190810160405280929190818152602001828054801561177457602002820191906000526020600020905b815481526020019060010190808311611760575b50505050509050935093509350935090919293565b60005b6008805490508110156117f557600881815481106117ad576117ac6126d0565b5b906000526020600020015483036117e25781600982815481106117d3576117d26126d0565b5b90600052602060002001819055505b80806117ed906126ff565b91505061178c565b505050565b60198360405161180a9190612378565b908152602001604051809103902060009054906101000a900460ff161561183057600080fd5b6001601b6000828254611843919061269c565b9250508190555060038590806001815401808255809150506001900390600052602060002001600090919091909150908161187e919061259b565b506004849080600181540180825580915050600190039060005260206000200160009091909190915090816118b3919061259b565b506005839080600181540180825580915050600190039060005260206000200160009091909190915090816118e8919061259b565b5060068290806001815401808255809150506001900390600052602060002001600090919091909150908161191d919061259b565b50600781908060018154018082558091505060019003906000526020600020016000909190919091509081611952919061259b565b506009600090806001815401808255809150506001900390600052602060002001600090919091909150556008601b54908060018154018082558091505060019003906000526020600020016000909190919091505560016019846040516119ba9190612378565b908152602001604051809103902060006101000a81548160ff0219169083151502179055505050505050565b6000604051905090565b600080fd5b600080fd5b600080fd5b600080fd5b6000601f19601f8301169050919050565b7f4e487b7100000000000000000000000000000000000000000000000000000000600052604160045260246000fd5b611a4d82611a04565b810181811067ffffffffffffffff82111715611a6c57611a6b611a15565b5b80604052505050565b6000611a7f6119e6565b9050611a8b8282611a44565b919050565b600067ffffffffffffffff821115611aab57611aaa611a15565b5b611ab482611a04565b9050602081019050919050565b82818337600083830152505050565b6000611ae3611ade84611a90565b611a75565b905082815260208101848484011115611aff57611afe6119ff565b5b611b0a848285611ac1565b509392505050565b600082601f830112611b2757611b266119fa565b5b8135611b37848260208601611ad0565b91505092915050565b6000819050919050565b611b5381611b40565b8114611b5e57600080fd5b50565b600081359050611b7081611b4a565b92915050565b600080600060608486031215611b8f57611b8e6119f0565b5b600084013567ffffffffffffffff811115611bad57611bac6119f5565b5b611bb986828701611b12565b9350506020611bca86828701611b61565b925050604084013567ffffffffffffffff811115611beb57611bea6119f5565b5b611bf786828701611b12565b9150509250925092565b600081519050919050565b600082825260208201905092915050565b6000819050602082019050919050565b600081519050919050565b600082825260208201905092915050565b60005b83811015611c67578082015181840152602081019050611c4c565b60008484015250505050565b6000611c7e82611c2d565b611c888185611c38565b9350611c98818560208601611c49565b611ca181611a04565b840191505092915050565b6000611cb88383611c73565b905092915050565b6000602082019050919050565b6000611cd882611c01565b611ce28185611c0c565b935083602082028501611cf485611c1d565b8060005b85811015611d305784840389528151611d118582611cac565b9450611d1c83611cc0565b925060208a01995050600181019050611cf8565b50829750879550505050505092915050565b600081519050919050565b600082825260208201905092915050565b6000819050602082019050919050565b611d7781611b40565b82525050565b6000611d898383611d6e565b60208301905092915050565b6000602082019050919050565b6000611dad82611d42565b611db78185611d4d565b9350611dc283611d5e565b8060005b83811015611df3578151611dda8882611d7d565b9750611de583611d95565b925050600181019050611dc6565b5085935050505092915050565b600060c0820190508181036000830152611e1a8189611ccd565b90508181036020830152611e2e8188611da2565b90508181036040830152611e428187611ccd565b90508181036060830152611e568186611da2565b90508181036080830152611e6a8185611da2565b905081810360a0830152611e7e8184611da2565b9050979650505050505050565b600080600060608486031215611ea457611ea36119f0565b5b6000611eb286828701611b61565b9350506020611ec386828701611b61565b925050604084013567ffffffffffffffff811115611ee457611ee36119f5565b5b611ef086828701611b12565b9150509250925092565b60008060408385031215611f1157611f106119f0565b5b6000611f1f85828601611b61565b9250506020611f3085828601611b61565b9150509250929050565b600073ffffffffffffffffffffffffffffffffffffffff82169050919050565b6000611f6582611f3a565b9050919050565b611f7581611f5a565b82525050565b600082825260208201905092915050565b6000611f9782611c2d565b611fa18185611f7b565b9350611fb1818560208601611c49565b611fba81611a04565b840191505092915050565b6000604082019050611fda6000830185611f6c565b8181036020830152611fec8184611f8c565b90509392505050565b6000606082019050818103600083015261200f8186611ccd565b905081810360208301526120238185611da2565b905081810360408301526120378184611ccd565b9050949350505050565b6000606082019050818103600083015261205b8186611ccd565b9050818103602083015261206f8185611ccd565b905081810360408301526120838184611ccd565b9050949350505050565b6000806000606084860312156120a6576120a56119f0565b5b600084013567ffffffffffffffff8111156120c4576120c36119f5565b5b6120d086828701611b12565b935050602084013567ffffffffffffffff8111156120f1576120f06119f5565b5b6120fd86828701611b12565b925050604084013567ffffffffffffffff81111561211e5761211d6119f5565b5b61212a86828701611b12565b9150509250925092565b600060e082019050818103600083015261214e818a611ccd565b905081810360208301526121628189611ccd565b905081810360408301526121768188611ccd565b9050818103606083015261218a8187611ccd565b9050818103608083015261219e8186611ccd565b905081810360a08301526121b28185611da2565b905081810360c08301526121c68184611da2565b905098975050505050505050565b600060808201905081810360008301526121ee8187611da2565b905081810360208301526122028186611da2565b905081810360408301526122168185611ccd565b9050818103606083015261222a8184611da2565b905095945050505050565b600080600080600060a08688031215612251576122506119f0565b5b600086013567ffffffffffffffff81111561226f5761226e6119f5565b5b61227b88828901611b12565b955050602086013567ffffffffffffffff81111561229c5761229b6119f5565b5b6122a888828901611b12565b945050604086013567ffffffffffffffff8111156122c9576122c86119f5565b5b6122d588828901611b12565b935050606086013567ffffffffffffffff8111156122f6576122f56119f5565b5b61230288828901611b12565b925050608086013567ffffffffffffffff811115612323576123226119f5565b5b61232f88828901611b12565b9150509295509295909350565b600081905092915050565b600061235282611c2d565b61235c818561233c565b935061236c818560208601611c49565b80840191505092915050565b60006123848284612347565b915081905092915050565b7f4e487b7100000000000000000000000000000000000000000000000000000000600052602260045260246000fd5b600060028204905060018216806123d657607f821691505b6020821081036123e9576123e861238f565b5b50919050565b60008190508160005260206000209050919050565b60006020601f8301049050919050565b600082821b905092915050565b6000600883026124517fffffffffffffffffffffffffffffffffffffffffffffffffffffffffffffffff82612414565b61245b8683612414565b95508019841693508086168417925050509392505050565b6000819050919050565b600061249861249361248e84611b40565b612473565b611b40565b9050919050565b6000819050919050565b6124b28361247d565b6124c66124be8261249f565b848454612421565b825550505050565b600090565b6124db6124ce565b6124e68184846124a9565b505050565b5b8181101561250a576124ff6000826124d3565b6001810190506124ec565b5050565b601f82111561254f57612520816123ef565b61252984612404565b81016020851015612538578190505b61254c61254485612404565b8301826124eb565b50505b505050565b600082821c905092915050565b600061257260001984600802612554565b1980831691505092915050565b600061258b8383612561565b9150826002028217905092915050565b6125a482611c2d565b67ffffffffffffffff8111156125bd576125bc611a15565b5b6125c782546123be565b6125d282828561250e565b600060209050601f83116001811461260557600084156125f3578287015190505b6125fd858261257f565b865550612665565b601f198416612613866123ef565b60005b8281101561263b57848901518255600182019150602085019450602081019050612616565b868310156126585784890151612654601f891682612561565b8355505b6001600288020188555050505b505050505050565b7f4e487b7100000000000000000000000000000000000000000000000000000000600052601160045260246000fd5b60006126a782611b40565b91506126b283611b40565b92508282019050808211156126ca576126c961266d565b5b92915050565b7f4e487b7100000000000000000000000000000000000000000000000000000000600052603260045260246000fd5b600061270a82611b40565b91507fffffffffffffffffffffffffffffffffffffffffffffffffffffffffffffffff820361273c5761273b61266d565b5b60018201905091905056fea264697066735822122078fbde420021f4444d8ed01bfec1d33f521607b03c39898f3def4fc182b0c7f464736f6c63430008130033",
  "immutableReferences": {},
  "source": "// SPDX-License-Identifier: MIT\npragma solidity >=0.4.22 <0.9.0;\n\ncontract crowdfunding {\n\n  string[] _usernames;\n  string[] _emails;\n  string[] _passwords;\n\n  string[] _orgnames;\n  string[] _orgyears;\n  string[] _orgcontacts;\n  string[] _orgaddress;\n  string[] _orgpasswords;\n  uint[] _orgids;\n  uint[] _orgstatus;\n\n  string[] _rpurpose;\n  uint[] _ramount;\n  string[] _rusernames;\n  uint[] _rids;\n  uint[] _rstatus;\n  uint[] _rdonations;\n\n  uint[] _rgids;\n  uint[] _gids;\n  string[] _gusernames;\n  uint[] _gdonations;\n\n  string[] _upurposes;\n  uint[] _uamounts;\n  string[] _ufiles;\n\n  mapping(string=>bool) _registeredusers;\n  mapping(string=>bool) _registeredemails;\n  mapping(string=>bool) _registeredorgs;\n  mapping(string=>bool) _registeredinvoices;\n\n  uint orgid;\n  uint rid;\n  uint gid;\n  address admin;\n  string adminp=\"1234\";\n\n  constructor() {\n    orgid=0;\n    rid=0;\n    gid=0;\n    admin=msg.sender;\n  }\n\n  function signup(string memory username,string memory email,string memory password) public {\n    require(!_registeredusers[username]);\n    require(!_registeredemails[email]);\n\n    _usernames.push(username);\n    _emails.push(email);\n    _passwords.push(password);\n    \n    _registeredusers[username]=true;\n    _registeredemails[email]=true;\n  }\n\n  function viewusers() public view returns(string[] memory,string[] memory,string[] memory){\n    return(_usernames,_emails,_passwords);\n  }\n\n  function addOrganisation(string memory orgname,string memory orgyear,string memory orgcontact,string memory orgadd,string memory orgpass) public {\n    require(!_registeredorgs[orgcontact]);\n\n    orgid+=1;\n    _orgnames.push(orgname);\n    _orgyears.push(orgyear);\n    _orgcontacts.push(orgcontact);\n    _orgaddress.push(orgadd);\n    _orgpasswords.push(orgpass);\n    _orgstatus.push(0);\n    _orgids.push(orgid);\n\n    _registeredorgs[orgcontact]=true;\n  }\n\n  function viewOrganisations() public view returns(string[] memory,string[] memory,string[] memory,string[] memory,string[] memory,uint[] memory,uint[] memory){\n    return(_orgnames,_orgyears,_orgcontacts,_orgaddress,_orgpasswords,_orgstatus,_orgids);\n  }\n\n  function viewAdmin() public view returns(address,string memory) {\n    return(admin,adminp);\n  }\n\n  function updateOrg(uint orgid1,uint status) public{\n    uint i;\n\n    for(i=0;i<_orgids.length;i++){\n      if(orgid1==_orgids[i]){\n        _orgstatus[i]=status;\n      }\n    }\n  }\n\n  function addRequest(string memory purpose,uint amount,string memory username) public {\n    rid+=1;\n    _rpurpose.push(purpose);\n    _ramount.push(amount);\n    _rusernames.push(username);\n    _rids.push(rid);\n    _rstatus.push(0);\n    _rdonations.push(0);\n  }\n\n  function viewRequests() public view returns(string[] memory,uint[] memory,string[] memory,uint[] memory,uint[] memory,uint[] memory){\n    return (_rpurpose,_ramount,_rusernames,_rids,_rstatus,_rdonations);\n  }\n\n  function addDonation(uint amount,uint reqid,string memory username) public {\n    uint i;\n\n    gid+=1;\n    _rgids.push(reqid);\n    _gids.push(gid);\n    _gusernames.push(username);\n    _gdonations.push(amount);\n\n    for(i=0;i<_rids.length;i++){\n      if(_rids[i]==reqid){\n        _rdonations[i]+=amount;\n        if(_rdonations[i]==_ramount[i]){\n          _rstatus[i]=1;\n        }\n      }\n    }\n  }\n\n  function viewDonations() public view returns(uint[] memory,uint[] memory,string[] memory,uint[] memory) {\n    return(_rgids,_gids,_gusernames,_gdonations);\n  } \n\n  function updateRequest(uint rid1,uint status) public{\n    uint i;\n\n    for(i=0;i<_rids.length;i++){\n      if(_rids[i]==rid1){\n        _rstatus[i]=status;\n      }\n    }\n  }\n\n  function addUtilisation(string memory purpose,uint amount, string memory invoice) public {\n\n    require(!_registeredinvoices[invoice]);\n\n    _upurposes.push(purpose);\n    _uamounts.push(amount);\n    _ufiles.push(invoice);\n\n    _registeredinvoices[invoice]=true;\n\n  }\n\n  function viewUtilisations() public view returns(string[] memory,uint[] memory, string[] memory){\n    return(_upurposes,_uamounts,_ufiles);\n  }\n\n}\n",
  "sourcePath": "/Users/ms/Desktop/crowd-funding-kits/contracts/crowdfunding.sol",
  "compiler": {
    "name": "solc",
    "version": "0.8.19+commit.7dd6d404.Emscripten.clang"
  },
  "schemaVersion": "3.4.16",
  "updatedAt": "2024-03-06T20:03:13.650Z",
  "networkType": "ethereum",
  "devdoc": {
    "kind": "dev",
    "methods": {},
    "version": 1
  },
  "userdoc": {
    "kind": "user",
    "methods": {},
    "version": 1
  }
}